{
  "_format": "hh-sol-artifact-1",
  "contractName": "Charity",
  "sourceName": "contracts/Contract.sol",
  "abi": [
    {
      "inputs": [
        {
          "internalType": "string",
          "name": "_name",
          "type": "string"
        }
      ],
      "name": "addDonor",
      "outputs": [],
      "stateMutability": "nonpayable",
      "type": "function"
    },
    {
      "inputs": [
        {
          "internalType": "string",
          "name": "_name",
          "type": "string"
        },
        {
          "internalType": "string",
          "name": "_desc",
          "type": "string"
        }
      ],
      "name": "addNgo",
      "outputs": [],
      "stateMutability": "nonpayable",
      "type": "function"
    },
    {
      "inputs": [
        {
          "internalType": "address",
          "name": "",
          "type": "address"
        }
      ],
      "name": "allDonor",
      "outputs": [
        {
          "internalType": "uint256",
          "name": "srNo",
          "type": "uint256"
        },
        {
          "internalType": "address",
          "name": "acc",
          "type": "address"
        },
        {
          "internalType": "string",
          "name": "name",
          "type": "string"
        }
      ],
      "stateMutability": "view",
      "type": "function"
    },
    {
      "inputs": [],
      "name": "allNgoList",
      "outputs": [
        {
          "components": [
            {
              "internalType": "uint256",
              "name": "srNo",
              "type": "uint256"
            },
            {
              "internalType": "address",
              "name": "acc",
              "type": "address"
            },
            {
              "internalType": "string",
              "name": "ngoName",
              "type": "string"
            },
            {
              "internalType": "string",
              "name": "desc",
              "type": "string"
            },
            {
              "internalType": "uint256[]",
              "name": "requestIds",
              "type": "uint256[]"
            },
            {
              "internalType": "uint256",
              "name": "rating",
              "type": "uint256"
            }
          ],
          "internalType": "struct Charity.Ngo[]",
          "name": "",
          "type": "tuple[]"
        }
      ],
      "stateMutability": "view",
      "type": "function"
    },
    {
      "inputs": [
        {
          "internalType": "address",
          "name": "",
          "type": "address"
        }
      ],
      "name": "allNgos",
      "outputs": [
        {
          "internalType": "uint256",
          "name": "srNo",
          "type": "uint256"
        },
        {
          "internalType": "address",
          "name": "acc",
          "type": "address"
        },
        {
          "internalType": "string",
          "name": "ngoName",
          "type": "string"
        },
        {
          "internalType": "string",
          "name": "desc",
          "type": "string"
        },
        {
          "internalType": "uint256",
          "name": "rating",
          "type": "uint256"
        }
      ],
      "stateMutability": "view",
      "type": "function"
    },
    {
      "inputs": [],
      "name": "allReqList",
      "outputs": [
        {
          "components": [
            {
              "internalType": "uint256",
              "name": "reqId",
              "type": "uint256"
            },
            {
              "internalType": "address payable",
              "name": "initiater",
              "type": "address"
            },
            {
              "internalType": "uint256",
              "name": "target",
              "type": "uint256"
            },
            {
              "internalType": "string",
              "name": "desc",
              "type": "string"
            },
            {
              "internalType": "uint256",
              "name": "deadline",
              "type": "uint256"
            },
            {
              "internalType": "address[]",
              "name": "donors",
              "type": "address[]"
            },
            {
              "internalType": "uint256",
              "name": "totalAmount",
              "type": "uint256"
            },
            {
              "internalType": "bool",
              "name": "completed",
              "type": "bool"
            }
          ],
          "internalType": "struct Charity.Request[]",
          "name": "",
          "type": "tuple[]"
        }
      ],
      "stateMutability": "view",
      "type": "function"
    },
    {
      "inputs": [
        {
          "internalType": "uint256",
          "name": "",
          "type": "uint256"
        }
      ],
      "name": "donorList",
      "outputs": [
        {
          "internalType": "uint256",
          "name": "srNo",
          "type": "uint256"
        },
        {
          "internalType": "address",
          "name": "acc",
          "type": "address"
        },
        {
          "internalType": "string",
          "name": "name",
          "type": "string"
        }
      ],
      "stateMutability": "view",
      "type": "function"
    },
    {
      "inputs": [],
      "name": "donorNo",
      "outputs": [
        {
          "internalType": "uint256",
          "name": "",
          "type": "uint256"
        }
      ],
      "stateMutability": "view",
      "type": "function"
    },
    {
      "inputs": [
        {
          "internalType": "address",
          "name": "_address",
          "type": "address"
        }
      ],
      "name": "getDetail",
      "outputs": [
        {
          "internalType": "uint256",
          "name": "",
          "type": "uint256"
        }
      ],
      "stateMutability": "view",
      "type": "function"
    },
    {
      "inputs": [
        {
          "internalType": "address",
          "name": "_address",
          "type": "address"
        }
      ],
      "name": "getDetailDonor",
      "outputs": [
        {
          "internalType": "uint256",
          "name": "",
          "type": "uint256"
        }
      ],
      "stateMutability": "view",
      "type": "function"
    },
    {
      "inputs": [
        {
          "internalType": "address",
          "name": "_address",
          "type": "address"
        }
      ],
      "name": "ifDonor",
      "outputs": [
        {
          "internalType": "bool",
          "name": "",
          "type": "bool"
        }
      ],
      "stateMutability": "view",
      "type": "function"
    },
    {
      "inputs": [
        {
          "internalType": "address",
          "name": "_address",
          "type": "address"
        }
      ],
      "name": "ifNgo",
      "outputs": [
        {
          "internalType": "bool",
          "name": "",
          "type": "bool"
        }
      ],
      "stateMutability": "view",
      "type": "function"
    },
    {
      "inputs": [
        {
          "internalType": "address",
          "name": "_address",
          "type": "address"
        }
      ],
      "name": "makeDonations",
      "outputs": [],
      "stateMutability": "payable",
      "type": "function"
    },
    {
      "inputs": [],
      "name": "makePayment",
      "outputs": [],
      "stateMutability": "nonpayable",
      "type": "function"
    },
    {
      "inputs": [
        {
          "internalType": "uint256",
          "name": "_target",
          "type": "uint256"
        },
        {
          "internalType": "string",
          "name": "_desc",
          "type": "string"
        },
        {
          "internalType": "uint256",
          "name": "_deadline",
          "type": "uint256"
        }
      ],
      "name": "makeRequest",
      "outputs": [],
      "stateMutability": "nonpayable",
      "type": "function"
    },
    {
      "inputs": [
        {
          "internalType": "uint256",
          "name": "",
          "type": "uint256"
        }
      ],
      "name": "ngoList",
      "outputs": [
        {
          "internalType": "uint256",
          "name": "srNo",
          "type": "uint256"
        },
        {
          "internalType": "address",
          "name": "acc",
          "type": "address"
        },
        {
          "internalType": "string",
          "name": "ngoName",
          "type": "string"
        },
        {
          "internalType": "string",
          "name": "desc",
          "type": "string"
        },
        {
          "internalType": "uint256",
          "name": "rating",
          "type": "uint256"
        }
      ],
      "stateMutability": "view",
      "type": "function"
    },
    {
      "inputs": [],
      "name": "ngoNo",
      "outputs": [
        {
          "internalType": "uint256",
          "name": "",
          "type": "uint256"
        }
      ],
      "stateMutability": "view",
      "type": "function"
    },
    {
      "inputs": [
        {
          "internalType": "uint256",
          "name": "",
          "type": "uint256"
        }
      ],
      "name": "reqList",
      "outputs": [
        {
          "internalType": "uint256",
          "name": "reqId",
          "type": "uint256"
        },
        {
          "internalType": "address payable",
          "name": "initiater",
          "type": "address"
        },
        {
          "internalType": "uint256",
          "name": "target",
          "type": "uint256"
        },
        {
          "internalType": "string",
          "name": "desc",
          "type": "string"
        },
        {
          "internalType": "uint256",
          "name": "deadline",
          "type": "uint256"
        },
        {
          "internalType": "uint256",
          "name": "totalAmount",
          "type": "uint256"
        },
        {
          "internalType": "bool",
          "name": "completed",
          "type": "bool"
        }
      ],
      "stateMutability": "view",
      "type": "function"
    },
    {
      "inputs": [],
      "name": "requestID",
      "outputs": [
        {
          "internalType": "uint256",
          "name": "",
          "type": "uint256"
        }
      ],
      "stateMutability": "view",
      "type": "function"
    },
    {
      "inputs": [
        {
          "internalType": "address",
          "name": "",
          "type": "address"
        }
      ],
      "name": "requests",
      "outputs": [
        {
          "internalType": "uint256",
          "name": "reqId",
          "type": "uint256"
        },
        {
          "internalType": "address payable",
          "name": "initiater",
          "type": "address"
        },
        {
          "internalType": "uint256",
          "name": "target",
          "type": "uint256"
        },
        {
          "internalType": "string",
          "name": "desc",
          "type": "string"
        },
        {
          "internalType": "uint256",
          "name": "deadline",
          "type": "uint256"
        },
        {
          "internalType": "uint256",
          "name": "totalAmount",
          "type": "uint256"
        },
        {
          "internalType": "bool",
          "name": "completed",
          "type": "bool"
        }
      ],
      "stateMutability": "view",
      "type": "function"
    }
  ],
  "bytecode": "0x6080604052600080556000600455600060075534801561001e57600080fd5b506136358061002e6000396000f3fe60806040526004361061011f5760003560e01c80637f81a4b3116100a0578063a336230111610064578063a336230114610426578063a746ee2e14610467578063cf443c17146104a4578063d8d79700146104cf578063e97fd29e146104e65761011f565b80637f81a4b3146103215780638228bf051461034c5780638941b8441461038f5780638f779201146103ba578063967f8982146103e55761011f565b806365e5c65f116100e757806365e5c65f1461021f5780636f0d61451461025c57806374adad1d146102995780637926b1c6146102dc5780637df2af16146103055761011f565b80631865b87f146101245780631f6b2a4a1461014d5780632a143048146101785780635eed3dcb146101a157806364912a32146101e0575b600080fd5b34801561013057600080fd5b5061014b60048036038101906101469190612363565b610523565b005b34801561015957600080fd5b506101626107cc565b60405161016f91906123c9565b60405180910390f35b34801561018457600080fd5b5061019f600480360381019061019a91906123e4565b6107d2565b005b3480156101ad57600080fd5b506101c860048036038101906101c39190612491565b610b0e565b6040516101d79392919061258f565b60405180910390f35b3480156101ec57600080fd5b50610207600480360381019061020291906125f9565b610bf0565b6040516102169392919061258f565b60405180910390f35b34801561022b57600080fd5b50610246600480360381019061024191906125f9565b610cc2565b6040516102539190612641565b60405180910390f35b34801561026857600080fd5b50610283600480360381019061027e91906125f9565b610d5d565b60405161029091906123c9565b60405180910390f35b3480156102a557600080fd5b506102c060048036038101906102bb91906125f9565b610da9565b6040516102d3979695949392919061267d565b60405180910390f35b3480156102e857600080fd5b5061030360048036038101906102fe91906126f3565b610ea0565b005b61031f600480360381019061031a91906125f9565b61124b565b005b34801561032d57600080fd5b50610336611594565b60405161034391906123c9565b60405180910390f35b34801561035857600080fd5b50610373600480360381019061036e9190612491565b61159a565b604051610386979695949392919061267d565b60405180910390f35b34801561039b57600080fd5b506103a46116a1565b6040516103b19190612a15565b60405180910390f35b3480156103c657600080fd5b506103cf6118ba565b6040516103dc91906123c9565b60405180910390f35b3480156103f157600080fd5b5061040c60048036038101906104079190612491565b6118c0565b60405161041d959493929190612a37565b60405180910390f35b34801561043257600080fd5b5061044d600480360381019061044891906125f9565b611a36565b60405161045e959493929190612a37565b60405180910390f35b34801561047357600080fd5b5061048e600480360381019061048991906125f9565b611b9c565b60405161049b91906123c9565b60405180910390f35b3480156104b057600080fd5b506104b9611be8565b6040516104c69190612ca0565b60405180910390f35b3480156104db57600080fd5b506104e4611e2d565b005b3480156104f257600080fd5b5061050d600480360381019061050891906125f9565b61219d565b60405161051a9190612641565b60405180910390f35b61052c3361219d565b1561056c576040517f08c379a000000000000000000000000000000000000000000000000000000000815260040161056390612d0e565b60405180910390fd5b6000604051806080016040528060075481526020013373ffffffffffffffffffffffffffffffffffffffff16815260200184848080601f016020809104026020016040519081016040528093929190818152602001838380828437600081840152601f19601f820116905080830192505050505050508152602001600067ffffffffffffffff81111561060257610601612d2e565b5b6040519080825280602002602001820160405280156106305781602001602082028036833780820191505090505b50815250905080600660003373ffffffffffffffffffffffffffffffffffffffff1673ffffffffffffffffffffffffffffffffffffffff1681526020019081526020016000206000820151816000015560208201518160010160006101000a81548173ffffffffffffffffffffffffffffffffffffffff021916908373ffffffffffffffffffffffffffffffffffffffff16021790555060408201518160020190816106dc9190612f69565b5060608201518160030190805190602001906106f9929190612238565b5090505060088190806001815401808255809150506001900390600052602060002090600402016000909190919091506000820151816000015560208201518160010160006101000a81548173ffffffffffffffffffffffffffffffffffffffff021916908373ffffffffffffffffffffffffffffffffffffffff160217905550604082015181600201908161078f9190612f69565b5060608201518160030190805190602001906107ac929190612238565b505050600760008154809291906107c29061306a565b9190505550505050565b60045481565b6107db33610cc2565b1561081b576040517f08c379a000000000000000000000000000000000000000000000000000000000815260040161081290612d0e565b60405180910390fd5b60006040518060c0016040528060045481526020013373ffffffffffffffffffffffffffffffffffffffff16815260200186868080601f016020809104026020016040519081016040528093929190818152602001838380828437600081840152601f19601f82011690508083019250505050505050815260200184848080601f016020809104026020016040519081016040528093929190818152602001838380828437600081840152601f19601f820116905080830192505050505050508152602001600067ffffffffffffffff8111156108fb576108fa612d2e565b5b6040519080825280602002602001820160405280156109295781602001602082028036833780820191505090505b5081526020016000815250905080600360003373ffffffffffffffffffffffffffffffffffffffff1673ffffffffffffffffffffffffffffffffffffffff1681526020019081526020016000206000820151816000015560208201518160010160006101000a81548173ffffffffffffffffffffffffffffffffffffffff021916908373ffffffffffffffffffffffffffffffffffffffff16021790555060408201518160020190816109dc9190612f69565b5060608201518160030190816109f29190612f69565b506080820151816004019080519060200190610a0f929190612238565b5060a0820151816005015590505060058190806001815401808255809150506001900390600052602060002090600602016000909190919091506000820151816000015560208201518160010160006101000a81548173ffffffffffffffffffffffffffffffffffffffff021916908373ffffffffffffffffffffffffffffffffffffffff1602179055506040820151816002019081610aaf9190612f69565b506060820151816003019081610ac59190612f69565b506080820151816004019080519060200190610ae2929190612238565b5060a08201518160050155505060046000815480929190610b029061306a565b91905055505050505050565b60088181548110610b1e57600080fd5b90600052602060002090600402016000915090508060000154908060010160009054906101000a900473ffffffffffffffffffffffffffffffffffffffff1690806002018054610b6d90612d8c565b80601f0160208091040260200160405190810160405280929190818152602001828054610b9990612d8c565b8015610be65780601f10610bbb57610100808354040283529160200191610be6565b820191906000526020600020905b815481529060010190602001808311610bc957829003601f168201915b5050505050905083565b60066020528060005260406000206000915090508060000154908060010160009054906101000a900473ffffffffffffffffffffffffffffffffffffffff1690806002018054610c3f90612d8c565b80601f0160208091040260200160405190810160405280929190818152602001828054610c6b90612d8c565b8015610cb85780601f10610c8d57610100808354040283529160200191610cb8565b820191906000526020600020905b815481529060010190602001808311610c9b57829003601f168201915b5050505050905083565b60008073ffffffffffffffffffffffffffffffffffffffff16600360008473ffffffffffffffffffffffffffffffffffffffff1673ffffffffffffffffffffffffffffffffffffffff16815260200190815260200160002060010160009054906101000a900473ffffffffffffffffffffffffffffffffffffffff1673ffffffffffffffffffffffffffffffffffffffff1614159050919050565b6000600660008373ffffffffffffffffffffffffffffffffffffffff1673ffffffffffffffffffffffffffffffffffffffff168152602001908152602001600020600001549050919050565b60016020528060005260406000206000915090508060000154908060010160009054906101000a900473ffffffffffffffffffffffffffffffffffffffff1690806002015490806003018054610dfe90612d8c565b80601f0160208091040260200160405190810160405280929190818152602001828054610e2a90612d8c565b8015610e775780601f10610e4c57610100808354040283529160200191610e77565b820191906000526020600020905b815481529060010190602001808311610e5a57829003601f168201915b5050505050908060040154908060060154908060070160009054906101000a900460ff16905087565b610ea933610cc2565b610ee8576040517f08c379a0000000000000000000000000000000000000000000000000000000008152600401610edf90613124565b60405180910390fd5b6000600360003373ffffffffffffffffffffffffffffffffffffffff1673ffffffffffffffffffffffffffffffffffffffff168152602001908152602001600020600401805490501480610f8f575060011515600160003373ffffffffffffffffffffffffffffffffffffffff1673ffffffffffffffffffffffffffffffffffffffff16815260200190815260200160002060070160009054906101000a900460ff161515145b610fce576040517f08c379a0000000000000000000000000000000000000000000000000000000008152600401610fc5906131b6565b60405180910390fd5b6000600160003373ffffffffffffffffffffffffffffffffffffffff1673ffffffffffffffffffffffffffffffffffffffff16815260200190815260200160002090506000548160000181905550338160010160006101000a81548173ffffffffffffffffffffffffffffffffffffffff021916908373ffffffffffffffffffffffffffffffffffffffff160217905550848160020181905550838382600301918261107b9291906131e1565b508181600401819055506000816006018190555060008160070160006101000a81548160ff021916908315150217905550600360003373ffffffffffffffffffffffffffffffffffffffff1673ffffffffffffffffffffffffffffffffffffffff16815260200190815260200160002060040160005490806001815401808255809150506001900390600052602060002001600090919091909150556002819080600181540180825580915050600190039060005260206000209060080201600090919091909150600082015481600001556001820160009054906101000a900473ffffffffffffffffffffffffffffffffffffffff168160010160006101000a81548173ffffffffffffffffffffffffffffffffffffffff021916908373ffffffffffffffffffffffffffffffffffffffff16021790555060028201548160020155600382018160030190816111d291906132c7565b506004820154816004015560058201816005019080546111f3929190612285565b50600682015481600601556007820160009054906101000a900460ff168160070160006101000a81548160ff021916908315150217905550505060008081548092919061123f9061306a565b91905055505050505050565b60001515600160008373ffffffffffffffffffffffffffffffffffffffff1673ffffffffffffffffffffffffffffffffffffffff16815260200190815260200160002060070160009054906101000a900460ff161515146112e1576040517f08c379a00000000000000000000000000000000000000000000000000000000081526004016112d8906133fb565b60405180910390fd5b60003411611324576040517f08c379a000000000000000000000000000000000000000000000000000000000815260040161131b90613467565b60405180910390fd5b600160008273ffffffffffffffffffffffffffffffffffffffff1673ffffffffffffffffffffffffffffffffffffffff16815260200190815260200160002060020154600160008373ffffffffffffffffffffffffffffffffffffffff1673ffffffffffffffffffffffffffffffffffffffff16815260200190815260200160002060060154106113ea576040517f08c379a00000000000000000000000000000000000000000000000000000000081526004016113e1906134d3565b60405180910390fd5b34600160008373ffffffffffffffffffffffffffffffffffffffff1673ffffffffffffffffffffffffffffffffffffffff168152602001908152602001600020600601600082825461143c91906134f3565b92505081905550600160008273ffffffffffffffffffffffffffffffffffffffff1673ffffffffffffffffffffffffffffffffffffffff168152602001908152602001600020600501339080600181540180825580915050600190039060005260206000200160009091909190916101000a81548173ffffffffffffffffffffffffffffffffffffffff021916908373ffffffffffffffffffffffffffffffffffffffff160217905550600660003373ffffffffffffffffffffffffffffffffffffffff1673ffffffffffffffffffffffffffffffffffffffff168152602001908152602001600020600301600160008373ffffffffffffffffffffffffffffffffffffffff1673ffffffffffffffffffffffffffffffffffffffff16815260200190815260200160002060000154908060018154018082558091505060019003906000526020600020016000909190919091505550565b60075481565b600281815481106115aa57600080fd5b90600052602060002090600802016000915090508060000154908060010160009054906101000a900473ffffffffffffffffffffffffffffffffffffffff16908060020154908060030180546115ff90612d8c565b80601f016020809104026020016040519081016040528092919081815260200182805461162b90612d8c565b80156116785780601f1061164d57610100808354040283529160200191611678565b820191906000526020600020905b81548152906001019060200180831161165b57829003601f168201915b5050505050908060040154908060060154908060070160009054906101000a900460ff16905087565b60606002805480602002602001604051908101604052809291908181526020016000905b828210156118b1578382906000526020600020906008020160405180610100016040529081600082015481526020016001820160009054906101000a900473ffffffffffffffffffffffffffffffffffffffff1673ffffffffffffffffffffffffffffffffffffffff1673ffffffffffffffffffffffffffffffffffffffff1681526020016002820154815260200160038201805461176390612d8c565b80601f016020809104026020016040519081016040528092919081815260200182805461178f90612d8c565b80156117dc5780601f106117b1576101008083540402835291602001916117dc565b820191906000526020600020905b8154815290600101906020018083116117bf57829003601f168201915b50505050508152602001600482015481526020016005820180548060200260200160405190810160405280929190818152602001828054801561187457602002820191906000526020600020905b8160009054906101000a900473ffffffffffffffffffffffffffffffffffffffff1673ffffffffffffffffffffffffffffffffffffffff168152602001906001019080831161182a575b50505050508152602001600682015481526020016007820160009054906101000a900460ff161515151581525050815260200190600101906116c5565b50505050905090565b60005481565b600581815481106118d057600080fd5b90600052602060002090600602016000915090508060000154908060010160009054906101000a900473ffffffffffffffffffffffffffffffffffffffff169080600201805461191f90612d8c565b80601f016020809104026020016040519081016040528092919081815260200182805461194b90612d8c565b80156119985780601f1061196d57610100808354040283529160200191611998565b820191906000526020600020905b81548152906001019060200180831161197b57829003601f168201915b5050505050908060030180546119ad90612d8c565b80601f01602080910402602001604051908101604052809291908181526020018280546119d990612d8c565b8015611a265780601f106119fb57610100808354040283529160200191611a26565b820191906000526020600020905b815481529060010190602001808311611a0957829003601f168201915b5050505050908060050154905085565b60036020528060005260406000206000915090508060000154908060010160009054906101000a900473ffffffffffffffffffffffffffffffffffffffff1690806002018054611a8590612d8c565b80601f0160208091040260200160405190810160405280929190818152602001828054611ab190612d8c565b8015611afe5780601f10611ad357610100808354040283529160200191611afe565b820191906000526020600020905b815481529060010190602001808311611ae157829003601f168201915b505050505090806003018054611b1390612d8c565b80601f0160208091040260200160405190810160405280929190818152602001828054611b3f90612d8c565b8015611b8c5780601f10611b6157610100808354040283529160200191611b8c565b820191906000526020600020905b815481529060010190602001808311611b6f57829003601f168201915b5050505050908060050154905085565b6000600360008373ffffffffffffffffffffffffffffffffffffffff1673ffffffffffffffffffffffffffffffffffffffff168152602001908152602001600020600001549050919050565b60606005805480602002602001604051908101604052809291908181526020016000905b82821015611e2457838290600052602060002090600602016040518060c0016040529081600082015481526020016001820160009054906101000a900473ffffffffffffffffffffffffffffffffffffffff1673ffffffffffffffffffffffffffffffffffffffff1673ffffffffffffffffffffffffffffffffffffffff168152602001600282018054611c9f90612d8c565b80601f0160208091040260200160405190810160405280929190818152602001828054611ccb90612d8c565b8015611d185780601f10611ced57610100808354040283529160200191611d18565b820191906000526020600020905b815481529060010190602001808311611cfb57829003601f168201915b50505050508152602001600382018054611d3190612d8c565b80601f0160208091040260200160405190810160405280929190818152602001828054611d5d90612d8c565b8015611daa5780601f10611d7f57610100808354040283529160200191611daa565b820191906000526020600020905b815481529060010190602001808311611d8d57829003601f168201915b5050505050815260200160048201805480602002602001604051908101604052809291908181526020018280548015611e0257602002820191906000526020600020905b815481526020019060010190808311611dee575b5050505050815260200160058201548152505081526020019060010190611c0c565b50505050905090565b611e3633610cc2565b611e75576040517f08c379a0000000000000000000000000000000000000000000000000000000008152600401611e6c90613124565b60405180910390fd5b600160003373ffffffffffffffffffffffffffffffffffffffff1673ffffffffffffffffffffffffffffffffffffffff168152602001908152602001600020600401544211611ef9576040517f08c379a0000000000000000000000000000000000000000000000000000000008152600401611ef090613573565b60405180910390fd5b60001515600160003373ffffffffffffffffffffffffffffffffffffffff1673ffffffffffffffffffffffffffffffffffffffff16815260200190815260200160002060070160009054906101000a900460ff16151514611f8f576040517f08c379a0000000000000000000000000000000000000000000000000000000008152600401611f86906133fb565b60405180910390fd5b600160003373ffffffffffffffffffffffffffffffffffffffff1673ffffffffffffffffffffffffffffffffffffffff16815260200190815260200160002060060154600160003373ffffffffffffffffffffffffffffffffffffffff1673ffffffffffffffffffffffffffffffffffffffff168152602001908152602001600020600201541115612056576040517f08c379a000000000000000000000000000000000000000000000000000000000815260040161204d906135df565b60405180910390fd5b600160003373ffffffffffffffffffffffffffffffffffffffff1673ffffffffffffffffffffffffffffffffffffffff16815260200190815260200160002060010160009054906101000a900473ffffffffffffffffffffffffffffffffffffffff1673ffffffffffffffffffffffffffffffffffffffff166108fc600160003373ffffffffffffffffffffffffffffffffffffffff1673ffffffffffffffffffffffffffffffffffffffff168152602001908152602001600020600601549081150290604051600060405180830381858888f19350505050158015612140573d6000803e3d6000fd5b5060018060003373ffffffffffffffffffffffffffffffffffffffff1673ffffffffffffffffffffffffffffffffffffffff16815260200190815260200160002060070160006101000a81548160ff021916908315150217905550565b60008073ffffffffffffffffffffffffffffffffffffffff16600660008473ffffffffffffffffffffffffffffffffffffffff1673ffffffffffffffffffffffffffffffffffffffff16815260200190815260200160002060010160009054906101000a900473ffffffffffffffffffffffffffffffffffffffff1673ffffffffffffffffffffffffffffffffffffffff1614159050919050565b828054828255906000526020600020908101928215612274579160200282015b82811115612273578251825591602001919060010190612258565b5b50905061228191906122d7565b5090565b8280548282559060005260206000209081019282156122c65760005260206000209182015b828111156122c55782548255916001019190600101906122aa565b5b5090506122d391906122d7565b5090565b5b808211156122f05760008160009055506001016122d8565b5090565b600080fd5b600080fd5b600080fd5b600080fd5b600080fd5b60008083601f840112612323576123226122fe565b5b8235905067ffffffffffffffff8111156123405761233f612303565b5b60208301915083600182028301111561235c5761235b612308565b5b9250929050565b6000806020838503121561237a576123796122f4565b5b600083013567ffffffffffffffff811115612398576123976122f9565b5b6123a48582860161230d565b92509250509250929050565b6000819050919050565b6123c3816123b0565b82525050565b60006020820190506123de60008301846123ba565b92915050565b600080600080604085870312156123fe576123fd6122f4565b5b600085013567ffffffffffffffff81111561241c5761241b6122f9565b5b6124288782880161230d565b9450945050602085013567ffffffffffffffff81111561244b5761244a6122f9565b5b6124578782880161230d565b925092505092959194509250565b61246e816123b0565b811461247957600080fd5b50565b60008135905061248b81612465565b92915050565b6000602082840312156124a7576124a66122f4565b5b60006124b58482850161247c565b91505092915050565b600073ffffffffffffffffffffffffffffffffffffffff82169050919050565b60006124e9826124be565b9050919050565b6124f9816124de565b82525050565b600081519050919050565b600082825260208201905092915050565b60005b8381101561253957808201518184015260208101905061251e565b60008484015250505050565b6000601f19601f8301169050919050565b6000612561826124ff565b61256b818561250a565b935061257b81856020860161251b565b61258481612545565b840191505092915050565b60006060820190506125a460008301866123ba565b6125b160208301856124f0565b81810360408301526125c38184612556565b9050949350505050565b6125d6816124de565b81146125e157600080fd5b50565b6000813590506125f3816125cd565b92915050565b60006020828403121561260f5761260e6122f4565b5b600061261d848285016125e4565b91505092915050565b60008115159050919050565b61263b81612626565b82525050565b60006020820190506126566000830184612632565b92915050565b6000612667826124be565b9050919050565b6126778161265c565b82525050565b600060e082019050612692600083018a6123ba565b61269f602083018961266e565b6126ac60408301886123ba565b81810360608301526126be8187612556565b90506126cd60808301866123ba565b6126da60a08301856123ba565b6126e760c0830184612632565b98975050505050505050565b6000806000806060858703121561270d5761270c6122f4565b5b600061271b8782880161247c565b945050602085013567ffffffffffffffff81111561273c5761273b6122f9565b5b6127488782880161230d565b9350935050604061275b8782880161247c565b91505092959194509250565b600081519050919050565b600082825260208201905092915050565b6000819050602082019050919050565b61279c816123b0565b82525050565b6127ab8161265c565b82525050565b600082825260208201905092915050565b60006127cd826124ff565b6127d781856127b1565b93506127e781856020860161251b565b6127f081612545565b840191505092915050565b600081519050919050565b600082825260208201905092915050565b6000819050602082019050919050565b612830816124de565b82525050565b60006128428383612827565b60208301905092915050565b6000602082019050919050565b6000612866826127fb565b6128708185612806565b935061287b83612817565b8060005b838110156128ac5781516128938882612836565b975061289e8361284e565b92505060018101905061287f565b5085935050505092915050565b6128c281612626565b82525050565b6000610100830160008301516128e16000860182612793565b5060208301516128f460208601826127a2565b5060408301516129076040860182612793565b506060830151848203606086015261291f82826127c2565b91505060808301516129346080860182612793565b5060a083015184820360a086015261294c828261285b565b91505060c083015161296160c0860182612793565b5060e083015161297460e08601826128b9565b508091505092915050565b600061298b83836128c8565b905092915050565b6000602082019050919050565b60006129ab82612767565b6129b58185612772565b9350836020820285016129c785612783565b8060005b85811015612a0357848403895281516129e4858261297f565b94506129ef83612993565b925060208a019950506001810190506129cb565b50829750879550505050505092915050565b60006020820190508181036000830152612a2f81846129a0565b905092915050565b600060a082019050612a4c60008301886123ba565b612a5960208301876124f0565b8181036040830152612a6b8186612556565b90508181036060830152612a7f8185612556565b9050612a8e60808301846123ba565b9695505050505050565b600081519050919050565b600082825260208201905092915050565b6000819050602082019050919050565b600081519050919050565b600082825260208201905092915050565b6000819050602082019050919050565b6000612afc8383612793565b60208301905092915050565b6000602082019050919050565b6000612b2082612ac4565b612b2a8185612acf565b9350612b3583612ae0565b8060005b83811015612b66578151612b4d8882612af0565b9750612b5883612b08565b925050600181019050612b39565b5085935050505092915050565b600060c083016000830151612b8b6000860182612793565b506020830151612b9e6020860182612827565b5060408301518482036040860152612bb682826127c2565b91505060608301518482036060860152612bd082826127c2565b91505060808301518482036080860152612bea8282612b15565b91505060a0830151612bff60a0860182612793565b508091505092915050565b6000612c168383612b73565b905092915050565b6000602082019050919050565b6000612c3682612a98565b612c408185612aa3565b935083602082028501612c5285612ab4565b8060005b85811015612c8e5784840389528151612c6f8582612c0a565b9450612c7a83612c1e565b925060208a01995050600181019050612c56565b50829750879550505050505092915050565b60006020820190508181036000830152612cba8184612c2b565b905092915050565b7f796f752061726520616c72656164792072656769737465726564000000000000600082015250565b6000612cf8601a8361250a565b9150612d0382612cc2565b602082019050919050565b60006020820190508181036000830152612d2781612ceb565b9050919050565b7f4e487b7100000000000000000000000000000000000000000000000000000000600052604160045260246000fd5b7f4e487b7100000000000000000000000000000000000000000000000000000000600052602260045260246000fd5b60006002820490506001821680612da457607f821691505b602082108103612db757612db6612d5d565b5b50919050565b60008190508160005260206000209050919050565b60006020601f8301049050919050565b600082821b905092915050565b600060088302612e1f7fffffffffffffffffffffffffffffffffffffffffffffffffffffffffffffffff82612de2565b612e298683612de2565b95508019841693508086168417925050509392505050565b6000819050919050565b6000612e66612e61612e5c846123b0565b612e41565b6123b0565b9050919050565b6000819050919050565b612e8083612e4b565b612e94612e8c82612e6d565b848454612def565b825550505050565b600090565b612ea9612e9c565b612eb4818484612e77565b505050565b5b81811015612ed857612ecd600082612ea1565b600181019050612eba565b5050565b601f821115612f1d57612eee81612dbd565b612ef784612dd2565b81016020851015612f06578190505b612f1a612f1285612dd2565b830182612eb9565b50505b505050565b600082821c905092915050565b6000612f4060001984600802612f22565b1980831691505092915050565b6000612f598383612f2f565b9150826002028217905092915050565b612f72826124ff565b67ffffffffffffffff811115612f8b57612f8a612d2e565b5b612f958254612d8c565b612fa0828285612edc565b600060209050601f831160018114612fd35760008415612fc1578287015190505b612fcb8582612f4d565b865550613033565b601f198416612fe186612dbd565b60005b8281101561300957848901518255600182019150602085019450602081019050612fe4565b868310156130265784890151613022601f891682612f2f565b8355505b6001600288020188555050505b505050505050565b7f4e487b7100000000000000000000000000000000000000000000000000000000600052601160045260246000fd5b6000613075826123b0565b91507fffffffffffffffffffffffffffffffffffffffffffffffffffffffffffffffff82036130a7576130a661303b565b5b600182019050919050565b7f596f75206e65656420746f20626520616e206f7267616e697a6174696f6e207460008201527f6f207261697365206d6f6e657900000000000000000000000000000000000000602082015250565b600061310e602d8361250a565b9150613119826130b2565b604082019050919050565b6000602082019050818103600083015261313d81613101565b9050919050565b7f596f75206861766520616c7265616479206d61646520726571756573742e205760008201527f61697420666f7220646561646c696e6500000000000000000000000000000000602082015250565b60006131a060308361250a565b91506131ab82613144565b604082019050919050565b600060208201905081810360008301526131cf81613193565b9050919050565b600082905092915050565b6131eb83836131d6565b67ffffffffffffffff81111561320457613203612d2e565b5b61320e8254612d8c565b613219828285612edc565b6000601f8311600181146132485760008415613236578287013590505b6132408582612f4d565b8655506132a8565b601f19841661325686612dbd565b60005b8281101561327e57848901358255600182019150602085019450602081019050613259565b8683101561329b5784890135613297601f891682612f2f565b8355505b6001600288020188555050505b50505050505050565b6000815490506132c081612d8c565b9050919050565b8181036132d55750506133ad565b6132de826132b1565b67ffffffffffffffff8111156132f7576132f6612d2e565b5b6133018254612d8c565b61330c828285612edc565b6000601f83116001811461333b5760008415613329578287015490505b6133338582612f4d565b8655506133a6565b601f19841661334987612dbd565b965061335486612dbd565b60005b8281101561337c57848901548255600182019150600185019450602081019050613357565b868310156133995784890154613395601f891682612f2f565b8355505b6001600288020188555050505b5050505050505b565b7f416c726561647920436f6d706c65746564000000000000000000000000000000600082015250565b60006133e560118361250a565b91506133f0826133af565b602082019050919050565b60006020820190508181036000830152613414816133d8565b9050919050565b7f4e6f20616d6f756e740000000000000000000000000000000000000000000000600082015250565b600061345160098361250a565b915061345c8261341b565b602082019050919050565b6000602082019050818103600083015261348081613444565b9050919050565b7f526571756972656420616d6f756e7420636f6c6c656374656400000000000000600082015250565b60006134bd60198361250a565b91506134c882613487565b602082019050919050565b600060208201905081810360008301526134ec816134b0565b9050919050565b60006134fe826123b0565b9150613509836123b0565b92508282019050808211156135215761352061303b565b5b92915050565b7f446561646c696e65206e6f742072656163686564000000000000000000000000600082015250565b600061355d60148361250a565b915061356882613527565b602082019050919050565b6000602082019050818103600083015261358c81613550565b9050919050565b7f4e6f7420656e6f7567682062616c616e63650000000000000000000000000000600082015250565b60006135c960128361250a565b91506135d482613593565b602082019050919050565b600060208201905081810360008301526135f8816135bc565b905091905056fea26469706673582212208b0466c41ecd5fee2cf1bf0e1b70b55ba13514b39224077f635773424ee1141464736f6c63430008120033",
  "linkReferences": {},
  "deployedLinkReferences": {}
}